:020000040800F2
:10000000E8140020C94000083D0700083F07000829
:1000100043070008470700084B07000800000000DE
:100020000000000000000000000000004F07000872
:10003000510700080000000053070008550700089A
:10004000E3400008E3400008E3400008E340000804
:10005000E3400008E3400008DD3D0008E3400008FD
:10006000E3400008E3400008E3400008E3400008E4
:10007000E3400008E3400008E3400008E3400008D4
:10008000E3400008E3400008E3400008E3400008C4
:10009000E3400008E3400008E3400008E3400008B4
:1000A000E3400008E3400008E3400008E3400008A4
:1000B0003D3700085D370008E3400008E3400008D2
:1000C000E3400008E3400008E3400008E340000884
:1000D000E34000083F400008E3400008E340000818
:1000E000E3400008E3400008E3400008E340000864
:1000F000E3400008E3400008E3400008E340000854
:10010000E3400008E3400008E3400008E340000843
:10011000E3400008E3400008E3400008E340000833
:10012000E3400008E3400008E3400008E340000823
:1001300000F002F800F05AF80AA090E8000C82449F
:100140008344AAF10107DA4501D100F04FF8AFF27C
:10015000090EBAE80F0013F0010F18BFFB1A43F0A5
:1001600001031847FC7200001C7300000A444FF0A2
:10017000000C10F8013B13F0070408BF10F8014B06
:100180001D1108BF10F8015B641E05D010F8016B4B
:10019000641E01F8016BF9D113F0080F1EBF10F8AF
:1001A000014BAD1C0C1B09D16D1E58BF01F801CBD2
:1001B000FAD505E014F8016B01F8016B6D1EF9D555
:1001C0009142D6D37047000000230024002500266A
:1001D000103A28BF78C1FBD8520728BF30C148BFAA
:1001E0000B6070471FB51FBD10B510BD06F0D7FBE3
:1001F0001146FFF7F7FF00F009F806F0F5FB03B42E
:10020000FFF7F2FF03BC03F0BDFE000030B5C1B044
:10021000002403F049FE03F0AFFE4FF4165003F044
:10022000BFFE00F087FB00F013FF00F0A9FB02F017
:100230006BFE41F61F4140F2E73003F02DFA41F624
:100240001F41092003F052FA03F0A0FD02F0E8FD7F
:1002500003F021FCDDE1F148007801283FD1F048AE
:10026000007800283BD123E0EEA010210B46C822E5
:10027000CDE900109621282002F095FD4FF4FA7088
:1002800003F04EFEEDA010210B46C822CDE9001070
:100290009621282002F087FD4FF4FA7003F040FE0B
:1002A000EB48006808B9012000E00020E849086038
:1002B00003F0D0FBA0F56F411639D5D1E5A0102190
:1002C0000B46C822CDE9001082213C2002F06BFDD4
:1002D0000020E44908604FF00100D1490870CF4880
:1002E0000078012854D1E0480078002850D1DF4838
:1002F000007801284CD1DE48007880B9DDA01021BB
:100300000B46C822CDE900109621142002F04BFDC7
:100310000121DF4805F04CFE0020CD4908604FF078
:100320000100D3490870DB480078B0B9DA4800789A
:1003300098B9DA480088C0EB8010D94A126802EBFD
:100340008001FC22D74803F097FCD4480088401C69
:10035000D24908800120D0490870CE480078012891
:1003600016D1CD48007898B9CC480088C0EB8010F1
:10037000CB4A126802EB8001FC22CB4803F07CFCE4
:10038000C6480088401CC54908800120C249087041
:10039000B748007801286FD1C44800780028FAD106
:1003A000B24800780028F6D10021B94805F000FED7
:1003B000BF480068401E2A21B0FBF1F201FB120089
:1003C00060B3BB480068401EB0FBF1F201FB1200B5
:1003D00000EB40004000B7490880AE48007860B9A3
:1003E000AE480088401CC0EB8010AD4A126802EB9A
:1003F0008001FC22AB4803F03FFCA64800780128AE
:100400000CD1A6480088401CC0EB8010A44A12689A
:1004100002EB8001FC22A44803F02EFCA6A01021D0
:100420000B46C822CDE90010AA21142002F0BBFC23
:10043000A8A010210B46C822CDE90010BE2114202F
:1004400002F0B1FC012088490870012540E0804895
:10045000006808B9012000E000207D490860C5EB74
:1004600085108F4A126802EB80014FF0FC0202A84F
:1004700003F088FB002417E091E07C480078012815
:1004800000D113E040219A4805F008F902A8015D67
:10049000974805F095F800BF4021954805F0FEF813
:1004A0000028F9D0601C84B2FC2CE6D300BF6F4852
:1004B000007801280AD18FA010210B46C822CDE96F
:1004C0000010D221142002F06EFC05E0681C85B2F9
:1004D000724800888542BADB00BF64480078012872
:1004E0004CD073480068401E2A21B0FBF1F201FB9A
:1004F0001200E8B35648006808B9012000E0002067
:100500005349086005F10100C0EB8010644A12688D
:1005100002EB80014FF0FC0202A803F033FB002441
:1005200016E052480078012800D115E040217048BB
:1005300005F0B4F802A8015D6D4805F041F800BF70
:1005400040216B4805F0AAF80028F9D0601C84B25D
:10055000584800888442E4DB00BF44480078012802
:100560000CD164A010210B46C822CDE9001000E098
:1005700004E0D221142002F016FC4BE03B48007846
:10058000012809D062A010210B46C822CDE9001035
:10059000D221142002F007FC01204449087034489D
:1005A0000078012835D130480078012831D11B4826
:1005B000007870BB00202D490870184908702C493C
:1005C0000870294908700120214908605749C1F87D
:1005D000940103F07BFB00201D4908605349C1F8DA
:1005E00094014FF47A7003F09BFC012018490860D5
:1005F0004E49C1F894014EA04FF010010B464FF048
:10060000C802CDE900104FF0E6014FF0500002F0B3
:10061000CAFB20E600BF002041B030BD0200002030
:100620001000002057323551363420436865636B23
:10063000204661696C65642100000000506C6561B2
:10064000736520436865636B2120202020202000F3
:100650009481214257323551363420526561647994
:10066000210000009401234212000020010000201C
:10067000110000204461746120636F6C6C656374C9
:10068000696F6E20626567616E2E2E2E000000007D
:100690000004004014000020150000201600002077
:1006A00018000020B80C0020BC0B00201300002014
:1006B00004000020080000204461746120636F6C16
:1006C0006C656374696F6E20636F6D706C657465C3
:1006D0002100000044617461206973206265696EC5
:1006E000672075706C6F616465642E2E2E000000AB
:1006F00000380140446174612075706C6F61642042
:100700006973207465726D696E617465642100009F
:10071000446174612075706C6F616420697320633B
:100720006F6D706C657465642100000000002342E9
:1007300053687574646F776E21000000704700BFC6
:10074000FEE700BFFEE700BFFEE700BFFEE7704721
:1007500070477047704700000CB500200190009072
:100760006B48006840F480306949086000BF684801
:10077000006800F4003000900198401C019000983F
:1007800018B90198B0F5A06FF1D16148006810F474
:10079000003F02D00120009001E00020009000986E
:1007A000012842D15B48006840F0100059490860B8
:1007B0000846006820F0030008600846006840F022
:1007C0000200086052484068514948600846406845
:1007D00048600846406840F48060486008464068C9
:1007E00020F47C1048600846406840F4E8104860F7
:1007F0000846006840F08070086000BF4448006808
:1008000010F0007FFAD04248406820F003004049D1
:1008100048600846406840F00200486000BF3C481D
:10082000406800F00C000828F9D10CBD10B5FFF7A6
:1008300093FF10BD10B53648006840F00100344900
:100840000860084640683449084031494860084615
:100850000068324908402E4908600846006820F4C4
:10086000802008600846406820F4FE0048604FF48D
:100870001F008860FFF7DAFF4FF00060284908602A
:1008800010BD10B5002100200022214B5B6803F051
:100890000C0121B1042906D0082928D107E0214BF9
:1008A000214C236027E01F4B1F4C236023E0184B93
:1008B0005B6803F47010164B5B6803F4803202230C
:1008C00003EB904022B9194B4343174C23600DE0D2
:1008D0000F4B5B6813F4003F04D0144B4343124C9E
:1008E000236003E00F4B43430F4C236003E00D4BA9
:1008F0000D4C236000BF00BF054B5B68C3F30313BF
:100900000B4CE15C084B1B68CB40074C236010BDCF
:1009100000100240002002400000FFF8FFFFF6FE3A
:1009200008ED00E000127A002000002000093D00E0
:100930002400002008B50121482004F09DFC20205F
:10094000ADF8000010208DF8030003208DF80200A0
:100950006946094804F0DAF92021074804F081FAD1
:100960002020ADF800006946044804F0CFF92021AA
:10097000024804F076FA08BD000C0140001801405E
:1009800008B501214C2004F077FC1C20ADF80000D4
:1009900048208DF803006946354804F0B7F9012076
:1009A000ADF8000028208DF803006946314804F0B6
:1009B000ADF908BD10B5044614B101202E490870E8
:1009C0002D480078002837D01021294804F02FFA4C
:1009D00078B10821264804F02AFA50B104212448AD
:1009E00004F025FA28B10121224804F020FA012858
:1009F00022D10A2003F094FA00201F490870102128
:100A00001B4804F014FA08B9012010BD0821184849
:100A100004F00DFA08B90220F7E70421144804F0A5
:100A200006FA08B90320F0E70121124804F0FFF9A3
:100A300001281BD10420E8E710210D4804F0F7F944
:100A4000012813D108210A4804F0F1F901280DD139
:100A50000421074804F0EBF9012807D101210548DA
:100A600004F0E5F910B90120034908700020CCE733
:100A7000001801400008014034000020F8490880B7
:100A80007047F749891C08807047F548801C00882A
:100A90007047F34A1080921C1180704710B50446CD
:100AA0002046FFF7EBFF052003F017FAFFF7EDFFF5
:100AB00010BDEC48C079EA4908807047E849891CB4
:100AC0000880704730B5014601F01F04C1F345139B
:100AD000CA0AE50205EB43151544A8B230BD00BFB4
:100AE0000100A0F10102D0B2FAD1704710B503465F
:100AF0000C46DC488088A0F51341413905D0D9481F
:100B00008088A0F5D041043914D1D649087AFFF77E
:100B1000B5FF1812FFF7B5FFD8B2FFF7B2FFD14902
:100B2000487AFFF7ABFF2012FFF7ABFFE0B2FFF709
:100B3000A8FF12E0CB488079012804D1C948008879
:100B4000401EC01A83B2C749087A1946FFF7A1FFB1
:100B5000C449487A2146FFF79CFF10BD2DE9F041BA
:100B600005460E4600240027A046BE480088A8423D
:100B700003DDBC484088B04202DC0020BDE8F081C3
:100B800031462846FFF7B2FFB6488088A0F51341EA
:100B9000413905D0B3488088A0F5D041043903D14C
:100BA0002E20FFF76BFF02E02220FFF767FFAD4822
:100BB0008088A0F51341203902D10220FFF78FFF72
:100BC000A748801C008800B100240220FFF787FF9F
:100BD000A348801C0488A3488088A0F513414139AC
:100BE0000CD10220FFF77BFF9D48801CB0F80080ED
:100BF000E7B24FF6FF7000EA072708E099488088BF
:100C0000A0F5D041043902D19548801C048895484C
:100C10008088A0F51341253917D092488088A0F527
:100C20008A41353911D08F488088A0F58A41313901
:100C30000BD08C488088A0F50941893905D08948B6
:100C40008088A0F53541053901D1204696E78548D1
:100C50008088A0F51341413907D1E012C002B912D2
:100C600040EA411040EAE82088E72046FFF72AFFE3
:100C700084E700B57B488088A0F51341413905D051
:100C800078488088A0F5D041043903D12920FFF7A6
:100C9000F5FE04E040F273110720FFF7FAFE00BDF5
:100CA00000B570488088A0F51341413905D06D48E2
:100CB0008088A0F5D041043903D12820FFF7DEFE5B
:100CC00003E000210720FFF7E4FE00BDF0B5054674
:100CD000002400276348807901281ED1614880885C
:100CE000A0F5D041043918D0082D15D2DFE805F061
:100CF0000406080A0C0E101206250DE007250BE06D
:100D0000042509E0052507E0012505E0002503E0AD
:100D1000032501E0022500BF00BF52488088A0F5EE
:100D20001341413905D04F488088A0F5D04104399E
:100D30007CD1082D1CD2DFE805F00406090C0F1247
:100D4000151800BF14E044F0800411E044F04004A2
:100D50000EE044F0C0040BE044F0200408E044F04E
:100D6000600405E044F0A00402E044F0E00400BFA9
:100D700000BF362744F008043A488088A0F5D041E7
:100D8000043901D144F0020421463846FFF781FEC0
:100D900014F0200F0DD0334800883249498888422A
:100DA00014DA3048068840882E4908800846468074
:100DB0000CE02C4800882B494988884206DD2948E8
:100DC0000688408827490880084646802549087AD1
:100DD000FFF754FE0020FFF754FE0020FFF751FEFE
:100DE00020490988491EC1F30F20FFF74AFE1D491B
:100DF0000978491EC8B2FFF744FE1A49487AFFF73E
:100E00003DFE0020FFF73DFE0020FFF73AFE1549AA
:100E10004988491EC1F30F20FFF733FE1149897835
:100E2000491EC8B2FFF72DFE37E0FFE7082D21D29B
:100E3000DFE805F004070A0D0F121A1D44F0300414
:100E400018E044F0100415E044F0200412E000BF64
:100E500010E044F038040DE044F028040AE00000FB
:100E6000FE07006CB40D002044F0180402E044F0CA
:100E7000080400BF00BFFE488088A0F509418939F9
:100E800004D1112746F24000044302E0032744F452
:100E9000805421463846FFF7FCFDF0BD30B50446CE
:100EA0000D4629462046FFF721FEFFF702FEF148D6
:100EB0000088F149088030BD30B503460C46154620
:100EC000EB488088A0F51341413905D0E848808877
:100ED000A0F5D041043914D1E549087AFFF7CEFDD9
:100EE0001812FFF7CEFDD8B2FFF7CBFDE049487AE4
:100EF000FFF7C4FD2012FFF7C4FDE0B2FFF7C1FD0C
:100F000012E0DB488079012804D1D9480088401ECE
:100F1000C01A83B2D649087A1946FFF7BAFDD449F8
:100F2000487A2146FFF7B5FDD148C079D249891EDC
:100F30000880881C058030BD10B50446002C3DD1CA
:100F4000CB498871F02008804FF4A0704880084693
:100F50008088A0F51341413905D0C5488088A0F5A7
:100F6000D041043914D12C20C149C8712A200872FB
:100F70002B20487208468088A0F5D04104394ED114
:100F80004FF4A070BA4908804FF4F070488046E0F2
:100F9000B7488088A0F50941893907D12220B44992
:100FA000C8714E2008724F20487238E02220B049A4
:100FB000C871202008722120487230E0AC48808837
:100FC000A0F5D04104392AD00120A94988714FF4F5
:100FD000A0700880F020488008468088A0F5134162
:100FE000413907D12C20A249C8712A2008722B2030
:100FF000487214E09E488088A0F50941893907D1DC
:1010000022209B49C8714F2008724E20487206E08A
:1010100022209749C87121200872202048720020A0
:10102000FFF754FE10BD70B50446002690480588B1
:101030004088454300210846FFF758FDFFF739FD7A
:1010400000BF02E08C480480761CAE42FAD370BD2B
:1010500000B59FB00121080204F001F9012140F21E
:10106000691004F009F90120ADF8780010208DF81E
:101070007B0003208DF87A001EA9804803F046FE0D
:101080004CF23370ADF8780018208DF87B00032007
:101090008DF87A001EA97A4803F038FE4FF680706A
:1010A000ADF8780018208DF87B0003208DF87A00C9
:1010B0001EA9744803F02AFE41F20100ADF8780041
:1010C00018208DF87B0003208DF87A001EA96E4849
:1010D00003F01CFE01200890002009900F200A90C8
:1010E00000200B900C900D900E9001900290032028
:1010F00003900020049005900690079006200F9022
:101100000020109011901020129000201390159044
:101110001490169017904FF480501890002019905A
:101120004FF480401A9000201B9008A81C9001A842
:101130001D900FA803F0CDFA0121062003F02AFC30
:10114000322002F0EDFE01210020FFF7A2FC322048
:1011500002F0E6FE0020FFF7A1FC45498880084622
:101160008088FF280ADB08468088A0F57F41FF3988
:1011700004D03F488088B0F5134F4BD1D320FFF700
:101180007DFCFFF782FCFFF780FCFFF77EFC38490F
:101190008880084680884FF6FF7101EA00203449B4
:1011A0008880FFF772FC324989880843304988807B
:1011B00008468088A0F5134141391BD0BF20FFF7B6
:1011C0005DFCFFF762FCFFF760FCFFF75EFCFFF7DA
:1011D0005CFC27498880084680884FF6FF7101EA49
:1011E000002023498880FFF750FC21498988084363
:1011F0001F4988801E488088A0F51341413909D0D5
:101200001B488088A0F5D041043903D049F2413011
:101210001749888016488088A0F5134141397CD150
:10122000CF20FFF72BFC0020FFF72BFCC120FFF79E
:1012300028FC3020FFF725FCED20FFF71FFC642081
:10124000FFF71FFC0320FFF71CFC1220FFF719FC1F
:101250008120FFF716FCE820FFF710FC8520FFF740
:1012600010FC1020FFF70DFC7A20FFF70AFC0DE0C0
:10127000B40D0020360000200008006C000C014076
:10128000001401400018014000200140CB20FFF76E
:10129000F5FB3920FFF7F5FB2C20FFF7F2FB0020D0
:1012A000FFF7EFFB3420FFF7ECFB0220FFF7E9FB31
:1012B000F720FFF7E3FB2020FFF7E3FBEA20FFF72F
:1012C000DDFB0020FFF7DDFB0020FFF7DAFBC0208D
:1012D000FFF7D4FB1B20FFF7D4FBC120FFF7CEFBA9
:1012E0000120FFF7CEFBC520FFF7C8FB3020FFF73A
:1012F000C8FB3020FFF7C5FBC720FFF7BFFBB720B7
:10130000FFF7BFFB3620FFF7B9FB4820FFF7B9FB1B
:101310003A20FFF7B3FB552000E0A8E0FFF7B1FB50
:10132000B120FFF7ABFB0020FFF7ABFB1A20FFF764
:10133000A8FBB620FFF7A2FB0A20FFF7A2FBA22022
:10134000FFF79FFBF220FFF799FB0020FFF799FBC7
:101350002620FFF793FB0120FFF793FBE020FFF728
:101360008DFB0F20FFF78DFB2A20FFF78AFB28203B
:10137000FFF787FB0820FFF784FB0E20FFF781FBB8
:101380000820FFF77EFB5420FFF77BFBA920FFF727
:1013900078FB4320FFF775FB0A20FFF772FB0F2055
:1013A000FFF76FFB0020FFF76CFB0020FFF769FBE6
:1013B0000020FFF766FB0020FFF763FBE120FFF74B
:1013C0005DFB0020FFF75DFB1520FFF75AFB1720A0
:1013D000FFF757FB0720FFF754FB1120FFF751FBE6
:1013E0000620FFF74EFB2B20FFF74BFB5620FFF7A5
:1013F00048FB3C20FFF745FB0520FFF742FB102090
:10140000FFF73FFB0F20FFF73CFB3F20FFF739FBC7
:101410003F20FFF736FB0F20FFF733FB2B20FFF7B2
:101420002DFB0020FFF72DFB0020FFF72AFB0120FA
:10143000FFF727FB3F20FFF724FB2A20FFF71EFBC7
:101440000020FFF71EFB0020FFF71BFB0020FFF72B
:1014500018FBEF20FFF715FB1120FFF70FFB78209B
:1014600002F05EFD2920FFF709FB01F00FBAFE48EC
:101470008088A0F5D04104397ED11120FFF7FEFA13
:10148000142002F04DFDD020FFF7F8FA0720FFF7F7
:10149000F8FA4220FFF7F5FA1D20FFF7F2FAD12003
:1014A000FFF7ECFA0020FFF7ECFA1A20FFF7E9FA51
:1014B0000920FFF7E6FAD220FFF7E0FA0120FFF754
:1014C000E0FA2220FFF7DDFAC020FFF7D7FA10205C
:1014D000FFF7D7FA3B20FFF7D4FA0020FFF7D1FA45
:1014E0000220FFF7CEFA1120FFF7CBFAC520FFF755
:1014F000C5FA0320FFF7C5FAC820FFF7BFFA00209E
:10150000FFF7BFFA2520FFF7BCFA2120FFF7B9FA51
:101510000520FFF7B6FA0020FFF7B3FA0A20FFF71D
:10152000B0FA6520FFF7ADFA2520FFF7AAFA772079
:10153000FFF7A7FA5020FFF7A4FA0F20FFF7A1FA50
:101540000020FFF79EFAF820FFF798FA0120FFF736
:1015500098FAFE20FFF792FA0020FFF792FA022095
:10156000FFF78FFA2020FFF789FA3620FFF786FA77
:101570000820FFF786FA00E02AE03A20FFF77EFA1B
:101580005520FFF77EFA2B20FFF778FA0020FFF7AF
:1015900078FA0020FFF775FA0120FFF772FA3F2072
:1015A000FFF76FFA2A20FFF769FA0020FFF769FAC0
:1015B0000020FFF766FA0120FFF763FADF20FFF74C
:1015C00060FA782002F0ACFC2920FFF757FA4CE7CC
:1015D000A5488088A0F5134125397DD147F6F00153
:1015E000E520FFF756FA4FF480710120FFF751FA1A
:1015F0004FF4E0610220FFF74CFA41F23001032082
:10160000FFF747FA00210420FFF743FA40F20221D6
:101610000820FFF73EFA00210920FFF73AFA0021DF
:101620000A20FFF736FA00210C20FFF732FA0021DA
:101630000D20FFF72EFA00210F20FFF72AFA0021D4
:101640001020FFF726FA07211120FFF722FA0021C8
:101650001220FFF71EFA00211320FFF71AFA0021CB
:101660000720FFF716FA41F290611020FFF711FAF8
:1016700040F227211120FFF70CFA9D211220FFF7DD
:1016800008FA4FF4C8511320FFF703FA2521292047
:10169000FFF7FFF90D212B20FFF7FBF90721302081
:1016A000FFF7F7F940F203313120FFF7F2F9032198
:1016B0003220FFF7EEF940F206213520FFF7E9F975
:1016C00008213620FFF7E5F940F206413720FFF701
:1016D000E0F94FF4417100E058E03820FFF7D9F904
:1016E00007213920FFF7D5F940F202613C20FFF7CE
:1016F000D0F908213D20FFF7CCF900215020FFF759
:10170000C8F9EF215120FFF7C4F900215220FFF75B
:10171000C0F940F23F115320FFF7BBF94FF42741C6
:101720006020FFF7B6F901216120FFF7B2F900212F
:101730006A20FFF7AEF900218020FFF7AAF9002107
:101740008120FFF7A6F900218220FFF7A2F90021EE
:101750008320FFF79EF900218420FFF79AF90021EA
:101760008520FFF796F910219020FFF792F94FF4AA
:10177000C0619220FFF78DF940F233110720FFF787
:1017800088F922210020FFF784F96EE63648808828
:10179000A0F51341283969D141F28F01EC20FFF700
:1017A00078F941F23421EF20FFF773F94FF480719B
:1017B0000120FFF76EF94FF4E0610220FFF769F9AD
:1017C00041F230010320FFF764F900210420FFF704
:1017D00060F940F202210820FFF75BF9002109209F
:1017E000FFF757F900210A20FFF753F901210C20D8
:1017F000FFF74FF900210D20FFF74BF900210F20D3
:10180000FFF747F900211020FFF743F907211120C6
:10181000FFF73FF900211220FFF73BF900211320C9
:10182000FFF737F901210720FFF733F9322002F0E3
:1018300077FB41F290411020FFF72BF940F227216E
:101840001120FFF726F9322002F06AFB8A211220CC
:10185000FFF71FF9322002F063FB4FF4D051132041
:10186000FFF717F9062102E0B40D00208BE02920D4
:10187000FFF70FF90D212B20FFF70BF9322002F0B3
:101880004FFB00212020FFF704F900212120FFF762
:1018900000F9322002F044FB00213020FFF7F9F874
:1018A00040F204613120FFF7F4F840F205313220B4
:1018B000FFF7EFF800213520FFF7EBF840F609417C
:1018C0003620FFF7E6F84FF401713720FFF7E1F813
:1018D00040F201313820FFF7DCF840F2077139207F
:1018E000FFF7D7F800213C20FFF7D3F840F60A2194
:1018F0003D20FFF7CEF8322002F012FB00215020ED
:10190000FFF7C7F8EF215120FFF7C3F8002152205D
:10191000FFF7BFF840F23F115320FFF7BAF84FF43A
:1019200027416020FFF7B5F801216120FFF7B1F8EA
:1019300000216A20FFF7ADF800218020FFF7A9F809
:1019400000218120FFF7A5F800218220FFF7A1F8F0
:1019500000218320FFF79DF800218420FFF799F8EC
:1019600000218520FFF795F810219020FFF791F8CE
:101970004FF4C0619220FFF78CF840F2331107203A
:10198000FFF787F871E5FE488088A0F513412039FC
:101990007ED10846FFF77DF84FF480710120FFF7F4
:1019A00078F84FF4E0610220FFF773F841F230015C
:1019B0000320FFF76EF800210420FFF76AF840F2D9
:1019C00002210820FFF765F800210920FFF761F8E0
:1019D00000210A20FFF75DF801210C20FFF759F8DC
:1019E00000210D20FFF755F800210F20FFF751F8D7
:1019F000322002F095FA40F201110720FFF749F872
:101A0000322002F08DFA4FF486511020FFF741F892
:101A100007211120FFF73DF84FF488711220FFF7DE
:101A200038F84FF430611320FFF733F800212920F4
:101A3000FFF72FF844F210012B20FFF72AF80021BE
:101A40005020FFF726F8EF215120FFF722F8002160
:101A50005220FFF71EF840F23F115320FFF719F80C
:101A60004FF41C516020FFF714F801216120FFF7AB
:101A700010F800216A20FFF70CF800218020FFF702
:101A800008F800218120FFF704F80021822000E0FF
:101A90002CE0FEF7FEFF00218320FEF7FAFF002175
:101AA0008420FEF7F6FF00218520FEF7F2FF1021CB
:101AB0009020FEF7EEFF00219220FEF7EAFF0121C1
:101AC0009320FEF7E6FF4FF488719520FEF7E1FFC3
:101AD00000219720FEF7DDFF00219820FEF7D9FFB7
:101AE00040F273110720FEF7D4FFBEE4A4488088BB
:101AF000A0F5134131397DD141F21401E720FEF701
:101B0000C8FF4FF480710120FEF7C3FF4FF400714E
:101B10000220FEF7BEFF41F238010320FEF7B9FFB5
:101B200040F202210820FEF7B4FF00210920FEF751
:101B3000B0FF00210A20FEF7ACFF00210C20FEF7C9
:101B4000A8FF00210D20FEF7A4FF00210F20FEF7C3
:101B5000A0FF00211020FEF79CFF07211120FEF7B7
:101B600098FF00211220FEF794FF00211320FEF7BA
:101B700090FFC82002F0D4F941F290611020FEF7E6
:101B800088FF40F227211120FEF783FF322002F068
:101B9000C7F90C211220FEF77CFF322002F0C0F9B9
:101BA0004FF400611320FEF774FF11212920FEF786
:101BB00070FF0B212B20FEF76CFF322002F0B0F9F2
:101BC00000212020FEF765FF40F23F112120FEF7A3
:101BD00060FF00213020FEF75CFF4FF4837131205D
:101BE000FEF757FF00213220FEF753FF4FF401713B
:101BF000352000E064E0FEF74CFF41F20A61362038
:101C0000FEF747FF40F207713720FEF742FF4FF41F
:101C100083713820FEF73DFF40F207713920FEF74F
:101C200038FF40F202413C20FEF733FF40F60F41FF
:101C30003D20FEF72EFF00215020FEF72AFFEF2166
:101C40005120FEF726FF00215220FEF722FF40F22E
:101C50003F115320FEF71DFF4FF41C516020FEF78B
:101C600018FF01216120FEF714FF00216A20FEF712
:101C700010FF00218020FEF70CFF00218120FEF7DD
:101C800008FF00218220FEF704FF00218320FEF7D9
:101C900000FF00218420FEF7FCFE00218520FEF7D6
:101CA000F8FE10219020FEF7F4FE4FF4C061922060
:101CB000FEF7EFFE40F233110720FEF7EAFE86E45E
:101CC0002F488088A0F5A84108397DD14FF4807154
:101CD0000120FEF7DEFE4FF4E0610220FEF7D9FEA0
:101CE00041F230010320FEF7D4FE00210420FEF76C
:101CF000D0FE40F207210820FEF7CBFE002109208C
:101D0000FEF7C7FE00210A20FEF7C3FE00210C20CB
:101D1000FEF7BFFE00210D20FEF7BBFE00210F20C5
:101D2000FEF7B7FE142002F0FBF841F2B06110207C
:101D3000FEF7AFFE01211120FEF7ABFE01211720B7
:101D4000FEF7A7FE4FF49C711220FEF7A2FE4FF49F
:101D500000611320FEF79DFE09212920FEF799FE60
:101D600009212A20FEF795FE0021A420FEF791FE0E
:101D700000215020FEF78DFEEF21512002E00000EF
:101D8000B40D0020FEF785FE00215220FEF781FEF3
:101D900040F23F115320FEF77CFE4FF41C516020AF
:101DA000FEF777FE01216120FEF773FE00216A2015
:101DB000FEF76FFE00218020FEF76BFE00218120E0
:101DC000FEF767FE002100E028E08220FEF761FEBA
:101DD00000218320FEF75DFE00218420FEF759FEDE
:101DE00000218520FEF755FE13219020FEF751FEBD
:101DF00000219220FEF74DFE03219320FEF749FEBD
:101E00004FF488719520FEF744FE40F273110720CD
:101E1000FEF73FFE322002F083F8B6E4FE488088E9
:101E2000A0F5A85105397DD10720FEF732FE3220FA
:101E300002F076F84FF48E711220FEF72AFE01218F
:101E4000A420FEF726FE0F210820FEF722FE08211F
:101E50000A20FEF71EFE08210D20FEF71AFE40F2B2
:101E600007713020FEF715FE07213120FEF711FE25
:101E700040F203613220FEF70CFE4FF4E0613320A4
:101E8000FEF707FE40F202213420FEF702FE022197
:101E90003520FEF7FEFD41F60F713620FEF7F9FD05
:101EA00040F207713720FEF7F4FD00213820FEF7DD
:101EB000F0FD00213920FEF7ECFD40F207713A20D9
:101EC000FEF7E7FD00213B20FEF7E3FD07213C2064
:101ED000FEF7DFFD00213D20FEF7DBFD322002F0A2
:101EE0001FF801210720FEF7D4FD01211720FEF77E
:101EF000D0FD322002F014F84FF4BD511020FEF74F
:101F0000C8FD40F217211120FEF7C3FD4FF48F7179
:101F10001220FEF7BEFD4FF470611320FEF7B9FDED
:101F2000002100E094E02A20FEF7B3FD0A212920D9
:101F3000FEF7AFFD4FF49F711220FEF7AAFD0021BE
:101F40005020FEF7A6FDEF215120FEF7A2FD002153
:101F50005220FEF79EFD40F23F115320FEF799FDFF
:101F60004FF41C516020FEF794FD01216120FEF723
:101F700090FD00216A20FEF78CFD00218020FEF7F5
:101F800088FD00218120FEF784FD00218220FEF7DC
:101F900080FD00218320FEF77CFD00218420FEF7D8
:101FA00078FD00218520FEF774FD13219020FEF7B7
:101FB00070FD4FF440719220FEF76BFD05219320D8
:101FC000FEF767FD00219520FEF763FD00219720B5
:101FD000FEF75FFD00219820FEF75BFD4FF4807156
:101FE0000120FEF756FD4FF4E0610220FEF751FD9F
:101FF00041F238010320FEF74CFD00210420FEF7DA
:1020000048FD00210C20FEF744FD00210F20FEF7C3
:1020100040FD00212020FEF73CFD00212120FEF79D
:1020200038FD21210720FEF734FD142001F078FF50
:1020300061210720FEF72DFD142001F071FF40F211
:1020400073110720FEF725FD142001F069FF99E4C4
:1020500071488088A0F5354105397DD10846FEF7E5
:1020600018FD00210846FEF714FD00210846FEF782
:1020700010FD00210846FEF70CFD0121A420FEF70B
:1020800008FD142001F04CFF4FF41C516020FEF7B6
:1020900000FD40F202210820FEF7FBFC4FF4057121
:1020A0003020FEF7F6FC43F215713120FEF7F1FC0B
:1020B00040F204613220FEF7ECFC40F6166133205A
:1020C000FEF7E7FC42F211213420FEF7E2FC4FF468
:1020D000A8513520FEF7DDFC48F207513620FEF707
:1020E000D8FC41F207413720FEF7D3FC41F203410F
:1020F0003820FEF7CEFC20213920FEF7CAFC1A2139
:102100009020FEF7C6FC00211020FEF7C2FC07213C
:102110001120FEF7BEFC00211220FEF7BAFC0021C0
:102120001320FEF7B6FC142001F0FAFE4FF4E6612E
:102130001020FEF7AEFC40F237111120FEF7A9FC8B
:10214000142001F0EDFE4FF4DC711220FEF7A1FC2B
:10215000142001F0E5FE00E086E04FF470611320EA
:10216000FEF797FC80212A20FEF793FC48212920C6
:10217000FEF78FFC142001F0D3FE4FF48071012094
:10218000FEF787FC4FF4E0610220FEF782FC41F28B
:1021900038010320FEF77DFC40F202210820FEF703
:1021A00078FC00210A20FEF774FC00210C20FEF7C9
:1021B00070FC00210D20FEF76CFC30210E20FEF794
:1021C00068FC00215020FEF764FCEF215120FEF74F
:1021D00060FC00215220FEF75CFC40F23F115320CE
:1021E000FEF757FC4FF41C516020FEF752FC012112
:1021F0006120FEF74EFC00216A20FEF74AFC112107
:102200009020FEF746FC4FF4C0619220FEF741FC9F
:1022100040F20241932001E0B40D0020FEF739FCAA
:1022200002219420FEF735FC142001F079FE0121F3
:102230000720FEF72EFC142001F072FE612107201A
:10224000FEF727FC40F273110720FEF722FC002165
:102250002020FEF71EFC00212120FEF71AFC22217F
:102260000020FEF716FC11E3FE488088A0F54541EA
:1022700005397DD10846FEF70CFC00210846FEF723
:1022800008FC142001F04CFE00210846FEF701FC7A
:1022900000210846FEF7FDFB00210846FEF7F9FB8A
:1022A00000210846FEF7F5FB0121A420FEF7F1FB13
:1022B000142001F035FE4FF41C516020FEF7E9FBBD
:1022C00040F606010820FEF7E4FB40F203713020DF
:1022D000FEF7DFFB01213120FEF7DBFB042132207A
:1022E000FEF7D7FB4FF481713320FEF7D2FB4FF49A
:1022F00040713420FEF7CDFB40F203113520FEF78C
:10230000C8FB1F213620FEF7C4FB40F203713720C3
:10231000FEF7BFFB01213820FEF7BBFB042139206B
:10232000FEF7B7FB15219020FEF7B3FB4FF4826157
:102330001020FEF7AEFB40F247211120FEF7A9FB6B
:102340004FF4DE711220FEF7A4FB4FF460611320FE
:10235000FEF79FFB782001F0E3FD4FF48071012030
:10236000FEF797FB4FF400710220FEF792FB00E0AE
:1023700050E041F230010320FEF78BFB08210A20D8
:10238000FEF787FB00210C20FEF783FB20210E20A7
:10239000FEF77FFB00210F20FEF77BFB00212020B2
:1023A000FEF777FB00212120FEF773FB3D212A2059
:1023B000FEF76FFB142001F0B3FD2D212920FEF75D
:1023C00068FB00215020FEF764FB4DF2EF01512025
:1023D000FEF75FFB00215220FEF75BFB40F23F114E
:1023E0005320FEF756FB00216120FEF752FB00212F
:1023F0006A20FEF74EFB4FF440719220FEF749FB36
:1024000005219320FEF745FB4FF480710720FEF76E
:1024100040FB3BE293488088A0F5094189397DD192
:1024200001210020FEF735FB4AF6A4010320FEF748
:1024300030FB00210C20FEF72CFB40F60C010D2098
:10244000FEF727FB4FF42C510E20FEF722FBB021A4
:102450001E20FEF71EFB42F63F310120FEF719FB5E
:102460004FF4C0610220FEF714FB00211020FEF79C
:1024700010FB46F278011120FEF70BFB002105202E
:10248000FEF707FB00210620FEF703FB4EF61C714A
:102490001620FEF7FEFA03211720FEF7FAFA40F2A3
:1024A00033210720FEF7F5FA00210B20FEF7F1FAA1
:1024B00000210F20FEF7EDFA00214120FEF7E9FA96
:1024C00000214220FEF7E5FA00214820FEF7E1FA5C
:1024D00040F23F114920FEF7DCFA00214A20FEF7C6
:1024E000D8FA00214B20FEF7D4FA4FF46F41442074
:1024F000FEF7CFFA00214520FEF7CBFA40F23F115C
:102500004620FEF7C6FA40F207713020FEF7C1FA06
:102510004FF401713120FEF7BCFA00E03DE04FF4CA
:1025200001713220FEF7B5FA40F202513320FEF776
:10253000B0FA40F207513420FEF7ABFA4FF40171C4
:102540003520FEF7A6FA4FF401713620FEF7A1FA06
:1025500040F202513720FEF79CFA40F202313A2055
:10256000FEF797FA40F202313B20FEF792FA002183
:102570002320FEF78EFA00212420FEF78AFA4FF47A
:1025800000412520FEF785FA00214F20FEF781FA51
:1025900000214E20FEF77DFA78E132488088A0F5D0
:1025A0008A4131395DD101210020FEF772FA0A20FB
:1025B00001F0B6FC41F228611020FEF76AFA0E2104
:1025C0001220FEF766FA40F639211320FEF761FA71
:1025D0000A2001F0A5FC40211120FEF75AFA5021F3
:1025E0001520FEF756FA0A2001F09AFC1E2112204F
:1025F000FEF74FFA0A2001F093FC4FF4B15110207E
:10260000FEF747FA42F639211320FEF742FA0A2074
:1026100001F086FC4FF480710120FEF73AFA4FF486
:1026200040710220FEF735FA41F238010320FEF72F
:1026300030FA40F202210820FEF72BFA08210A2086
:10264000FEF727FA00213020FEF723FA40F202417C
:102650003120FEF71EFA4FF483713220FEF719FA8B
:1026600002E05EE0B40D002040F203513320FEF79B
:1026700010FA4FF482713420FEF70BFA40F2013168
:102680003520FEF706FA40F207713620FEF701FA10
:1026900040F205313720FEF7FCF94FF40271382083
:1026A000FEF7F7F940F60B713920FEF7F2F9022137
:1026B0004120FEF7EEF94FF41C516020FEF7E9F9D6
:1026C00001216120FEF7E5F94FF404719020FEF737
:1026D000E0F94FF485719220FEF7DBF90421932095
:1026E000FEF7D7F94FF48071A020FEF7D2F901214F
:1026F0000720FEF7CEF921210720FEF7CAF9232192
:102700000720FEF7C6F933210720FEF7C2F940F291
:1027100033110720FEF7BDF90021A020FEF7B9F91B
:10272000B4E0FB488088A0F58A413539F8D13021E2
:102730001520FEF7AEF910219A20FEF7AAF9202104
:102740001120FEF7A6F943F228411020FEF7A1F967
:1027500002211220FEF79DF941F238011320FEF705
:1027600098F9282001F0DCFB12210846FEF791F9C8
:10277000282001F0D5FB43F220411020FEF789F913
:1027800043F238011320FEF784F9462001F0C8FB1C
:1027900000213020FEF77DF940F202413120FEF7A2
:1027A00078F940F207313220FEF773F94FF44171A6
:1027B0003320FEF76EF904213420FEF76AF940F267
:1027C00001413520FEF765F940F207713620FEF72A
:1027D00060F940F205313720FEF75BF94FF4C26132
:1027E0003820FEF756F94FF4C2613920FEF751F94F
:1027F0004FF480710120FEF74CF94FF44071022034
:10280000FEF747F941F230010320FEF742F940F6A6
:1028100008010820FEF73DF908210A20FEF739F9E2
:102820004FF41C516020FEF734F901216120FEF7BE
:1028300030F94FF49F719020FEF72BF94FF480711F
:102840009220FEF726F94FF480719320FEF721F9CC
:102850004FF44051A020FEF71CF91021A320FEF7F1
:1028600018F901210720FEF714F921210720FEF7AE
:1028700010F923210720FEF70CF933210720FEF77A
:1028800008F940F233110720FEF703F90020FEF7A4
:1028900053FB01209F4908604FF6FF70FEF7C3FB12
:1028A0001FB000BD2DE9F04F05460E46174698466D
:1028B000DDF824A04FF0000B781B401C1FFA80FBB2
:1028C000344613E021462846FEF710F9FEF7F1F8EA
:1028D0004FF0000906E05046FEF7D3F809F1010079
:1028E0001FFA80F9D945F6DB601C84B24445E9DD66
:1028F000BDE8F08F2DE9F84F07460D469046994602
:10290000DDF828B0A8EB0700401C80B20090A9EBCE
:102910000500401C1FFA80FA002415E0281981B236
:102920003846FEF7E3F8FEF7C4F8002607E004FB9C
:102930000A603BF8100078490880701C86B2009845
:102940008642F4DB601C84B25445E7DBBDE8F88FB7
:102950002DE9FF4F84B081468A4600200390029003
:102960000698A0EB09050798A0EB0A06CDF804909D
:10297000CDF800A0002D01DD012705E00DB90027ED
:1029800002E04FF0FF376D42002E02DD4FF00108EC
:1029900006E016B94FF0000802E04FF0FF3876422B
:1029A000B54201DD2C4600E034464FF0000B21E03B
:1029B000009A91B2019A90B2FEF770FA03982844F7
:1029C00003900298304402900398A04205DD0398DA
:1029D000001B03900198384401900298A04205DD45
:1029E0000298001B02900098404400900BF10100F7
:1029F0001FFA80FB601C8345DADD08B0BDE8F08F6C
:102A0000F0B504460D4616461F462B46324629466B
:102A10002046FFF79DFF3B46224629462046FFF70A
:102A200097FF3B46324639462046FFF791FF3B462B
:102A3000324629463046FFF78BFFF0BD2DE9F043C3
:102A400006460F469046002445460320A0EB480961
:102A50003CE07A1B91B2321990B2FEF71FFA3A1B92
:102A600091B2721990B2FEF719FA3A1991B272192D
:102A700090B2FEF713FA7A1991B2321990B2FEF7BA
:102A80000DFA7A1991B2321B90B2FEF707FA3A1991
:102A900091B2721B90B2FEF701FA7A1B91B2321B0F
:102AA00090B2FEF7FBF93A1B91B2721B90B2FEF79F
:102AB000F5F9641CB9F1000F03DAA000801D814410
:102AC00004E0601B80000A3081446D1EAC42C0DD12
:102AD000BDE8F0832DE9F84F05460F4690461E46A7
:102AE00000970E48B0F80090A8F1200000F0FF0811
:102AF0000A98002859D1002454E00C2E12D108EB7A
:102B00004800074901EB800010F804A00FE0000026
:102B1000B40D0020808121420008006C36000020A6
:102B2000FC690008B94800EB081010F804A04FF049
:102B3000000B31E01AF0800F03D0B548A0F80090E8
:102B400003E0B4480088B249088039462846FEF7B9
:102B5000A5F94FEA4A604FEA106A781C87B2AE487E
:102B60000088A84204DCAA48A0F80090BDE8F88FCD
:102B70000098381AB0420BD1009F681C85B2A64855
:102B80000088A84203DCA248A0F80090EEE706E027
:102B90000BF1010000F0FF0BBBF1080FCADB00BF17
:102BA000601CC4B2B442A8DB44E0002440E00C2E18
:102BB00007D108EB4800994901EB800010F804A008
:102BC00004E0924800EB081010F804A04FF0000B4E
:102BD00028E01AF0800F03D039462846FEF75EF948
:102BE0004FEA4A604FEA106A781C87B28A484088E8
:102BF000A84203DC8648A0F80090B7E70098381A8E
:102C0000B0420BD1009F681C85B283480088A8425F
:102C100003DC7F48A0F80090A8E706E00BF1010074
:102C200000F0FF0BBBF1080FD3DB00BF601CC4B288
:102C3000B442BCDB7648A0F8009000BF96E710B520
:102C40000246012000E050430B00A1F10104E1B273
:102C5000F9D110BD2DE9FF4F81B0074691461E46C0
:102C60000E9D4FF0000A002439E0301B401EC1B217
:102C70000A20FFF7E4FFB9FBF0F00A21B0FBF1F204
:102C800001FB1208BAF1000F16D1701EA04213DD2D
:102C9000B8F1000F0ED10020AB4605EBDB714910F7
:102CA00001FB0471009088B22B4620220299FFF7A5
:102CB00011FF12E04FF0010A0020AB4605EBDB717B
:102CC000491001FB0471009088B208F13001CAB2CA
:102CD0002B460299FFF7FEFE00BF601CC4B2B4424F
:102CE000C3DB05B0BDE8F08F2DE9FF4F82B006468B
:102CF00092461F46DDE90F480020019000254DE077
:102D0000781B401EC1B20A20FFF799FFBAFBF0F012
:102D10000A21B0FBF1F201FB1209019850BB781EA9
:102D2000A84227DDB9F1000F22D118F0800F0FD093
:102D300008F00100A34604EBDB71491001FB0561BB
:102D4000009088B2234630220399FFF7C3FE0EE0BD
:102D500008F00100A34604EBDB71491001FB05619B
:102D6000009088B2234620220399FFF7B3FE13E0B8
:102D70000120019008F00100A34604EBDB7149102B
:102D800001FB0561009088B209F13001CAB2234607
:102D90000399FFF79FFE00BF681CC5B2BD42AFDBC1
:102DA00006B0BDE8F08F2DE9F84704460D46904681
:102DB0009946DDE9096704F0FF0A08EB04001FFAF1
:102DC00080F809EB05001FFA80F916E0444502DBA4
:102DD0005446A81985B24D4500DB14E00020009050
:102DE0003A78334629462046FFF774FE304606EB14
:102DF000D07104EB61018CB27F1C38787E2802DC34
:102E000038782028E2DA00BFBDE8F887706E000845
:102E10003600002038000020B40D0020FC690008B6
:102E200000B587B001214FF4017002F025FA4FF48C
:102E3000004002F088F90E20ADF8040000208DF863
:102E4000070001A92E4801F061FF2E4801F0CAF9E0
:102E5000002002908DF80C008DF80D004FF46020DA
:102E600004900020059001208DF8180002A9254843
:102E700001F0DFF90121234801F007FA214801F0B0
:102E800026FA00BF1F4801F027FA0028FAD11D4892
:102E900001F02CFA00BF1B4801F02DFA0028FAD1EE
:102EA00007B000BD10B5044607230122214615488E
:102EB00001F057FA0121134801F027FA00BF02215F
:102EC000104801F093FB0028F9D00E4801F0B0FA49
:102ED00010BD2DE9F04107460C460025002608E00C
:102EE0003846FFF7DFFF05440A2000F0F6FF701CAC
:102EF000C6B2A642F4DBC5F38F00BDE8F081000046
:102F000000080140002401402DE9F04F87B0002067
:102F100006900C2005902320049008200390202088
:102F200002904FF0190A32200190002000904FF0DB
:102F30001E094FF0530B4FF01F0800F0B5FF01F0D2
:102F40001BF84FF4165001F02BF8FDF7F3FCFEF7D9
:102F50007FF8002523E000241DE08027002616E0EE
:102F600005EB8500F9490844005D38420CD0059A0C
:102F7000324402EBC400039A5119FDF7B7FDFDF787
:102F800098FDF348A0F800807F10701CC6B2082E90
:102F9000E6DB601CC4B2052CDFDB681CC5B22C2D3F
:102FA000D9DB002525E000241FE08027002618E05B
:102FB00005EB8500E7490844005D38420ED0DDE9A5
:102FC00004321A44324402EBC400039A5119FDF74B
:102FD0008DFDFDF76EFDDE48A0F800807F10701CAF
:102FE000C6B2082EE4DB601CC4B2052CDDDB681C15
:102FF000C5B2272DD7DB002526E0002420E080275E
:10300000002619E005EB8500D3490844005D3842ED
:103010000FD0DDE9042303EB4202324402EBC4008B
:10302000039A5119FDF762FDFDF743FDC848A0F86A
:1030300000807F10701CC6B2082EE3DB601CC4B297
:10304000052CDCDB681CC5B22C2DD6DB002527E067
:10305000002421E0802700261AE005EB8500BF4907
:103060000844005D384210D0049A02EB4203059AEE
:103070001A44324402EBC400039A5119FDF736FD9D
:10308000FDF717FDB248A0F800807F10701CC6B293
:10309000082EE2DB601CC4B2052CDBDB681CC5B269
:1030A0002C2DD5DB002526E0002420E080270026FB
:1030B00019E005EB8500AA490844005D38420FD0AD
:1030C000DDE9042303EB8202324402EBC400039ADD
:1030D0005119FDF70BFDFDF7ECFC9D48A0F80080B1
:1030E0007F10701CC6B2082EE3DB601CC4B2052C36
:1030F000DCDB681CC5B22C2DD6DB002527E00024C4
:1031000021E0802700261AE005EB85009549084458
:10311000005D384210D0049A02EB8203059A1A44EB
:10312000324402EBC400039A5119FDF7DFFCFDF7AE
:10313000C0FC8748A0F800807F10701CC6B2082E23
:10314000E2DB601CC4B2052CDBDB681CC5B22C2D95
:10315000D5DB002522E000241CE08027002615E0B6
:10316000814800EB8500005D38420CD0029A324461
:1031700002EBC400019A5119FDF7B8FCFDF799FC68
:103180007348A0F800807F10701CC6B2082EE7DBE1
:10319000601CC4B2042CE0DB681CC5B2212DDADB54
:1031A000002523E000241DE08027002616E06F485C
:1031B00000EB8500005D38420DD0029A5244324443
:1031C00002EBC400019A5119FDF790FCFDF771FC68
:1031D0005F48A0F800807F10701CC6B2082EE6DBA6
:1031E000601CC4B2042CDFDB681CC5B2212DD9DB06
:1031F000002526E0002420E08027002619E05C4816
:1032000000EB4500005D384210D0029A02EB4A0202
:10321000521D324402EBC400019AD21C5119FDF731
:1032200065FCFDF746FC4A48A0F800807F10701C42
:10323000C6B2082EE3DB601CC4B2022CDCDB681CC7
:10324000C5B21C2DD6DB002526E0002420E0802717
:10325000002619E0474800EB4500005D384210D0D9
:103260000AEB4A03029A1A44324402EBC400019A60
:10327000D21C5119FDF73AFCFDF71BFC3448A0F8AD
:1032800000807F10701CC6B2082EE3DB601CC4B245
:10329000022CDCDB681CC5B21C2DD6DB002526E029
:1032A000002420E08027002619E005EB4500324984
:1032B0000844005D38420FD0029A02EB8A02324481
:1032C00002EBC400019AD21C5119FDF70FFCFDF767
:1032D000F0FB1F48A0F800807F10701CC6B2082EBB
:1032E000E3DB601CC4B2032CDCDB681CC5B21C2D04
:1032F000D6DB002526E0002420E08027002619E008
:103300001E4800EB4500005D384210D00AEB8A03EE
:10331000029A1A44324402EBC400019AD21C511999
:10332000FDF7E4FBFDF7C5FB0948A0F800807F101E
:10333000701CC6B2082EE3DB601CC4B2022CDCDBBE
:10334000681CC5B21C2DD6DB002541E03A000020E8
:103350000008006C16010020D9010020B5020020F1
:10336000910300206D04002049050020CD050020B8
:103370005106002089060020C10600201507002004
:10338000002421E0802700261AE0B94800EB450020
:10339000005D384211D00AEB4A03029A02EB430265
:1033A000324402EBC400019AD21C5119FDF79EFB76
:1033B000FDF77FFBAF48A0F800807F10701CC6B2FD
:1033C000082EE2DB601CC4B2022CDBDB681CC5B239
:1033D0001C2DD5DB002522E000241CE080270026E0
:1033E00015E0A54800EB8500005D38420CD0009A3E
:1033F000324402EBC4000BEB0501FDF777FBFDF750
:1034000058FB9C48A0F800807F10701CC6B2082EA4
:10341000E7DB601CC4B2042CE0DB681CC5B2212DC4
:10342000DADB002523E000241DE08027002616E0DB
:10343000924800EB8500005D38420DD0009A4A4466
:10344000324402EBC4000BEB0501FDF74FFBFDF727
:1034500030FB8848A0F800807F10701CC6B2082E90
:10346000E6DB601CC4B2042CDFDB681CC5B2212D76
:10347000D9DB002524E000241EE08027002617E089
:103480007F4800EB8500005D38420ED0009A02EBC9
:103490004902324402EBC4000BEB0501FDF726FBA9
:1034A000FDF707FB7348A0F800807F10701CC6B2C0
:1034B000082EE5DB601CC4B2042CDEDB681CC5B240
:1034C000212DD8DB002525E000241FE080270026E1
:1034D00018E06C4800EB8500005D38420FD009EB26
:1034E0004903009A1A44324402EBC4000BEB050175
:1034F000FDF7FCFAFDF7DDFA5E48A0F800807F10CA
:10350000701CC6B2082EE4DB601CC4B2042CDDDBE8
:10351000681CC5B2212DD7DB002524E000241EE065
:103520008027002617E0584800EB8500005D3842F0
:103530000ED0009A02EB8902324402EBC4000BEB7E
:103540000501FDF7D3FAFDF7B4FA4A48A0F8008068
:103550007F10701CC6B2082EE5DB601CC4B2042CC0
:10356000DEDB681CC5B2212DD8DB002525E0002458
:103570001FE08027002618E0444800EB8500005D2E
:1035800038420FD009EB8903009A1A44324402EB07
:10359000C4000BEB0501FDF7A9FAFDF78AFA3548DF
:1035A000A0F800807F10701CC6B2082EE4DB601CFF
:1035B000C4B2042CDDDB681CC5B2212DD7DB00258D
:1035C00026E0002420E08027002619E0304800EBA8
:1035D0008500005D384210D009EB4903009A02EBE8
:1035E0004302324402EBC4000BEB0501FDF77EFA07
:1035F000FDF75FFA1F48A0F800807F10701CC6B26C
:10360000082EE3DB601CC4B2042CDCDB681CC5B2F2
:10361000212DD6DB002525E000241FE08027002691
:1036200018E01C4800EB8500005D38420FD0C9EB64
:10363000C903009A1A44324402EBC4000BEB0501A3
:10364000FDF754FAFDF735FA0A48A0F800807F101C
:10365000701CC6B2082EE4DB601CC4B2042CDDDB97
:10366000681CC5B2212DD7DB07B0BDE8F08F000084
:103670004D0700200008006C85070020F50700209A
:1036800079080020FD08002081090020050A00209B
:10369000890A00200D0B00207FB505460C4601214C
:1036A000084601F0F6FDADF80850ADF804400020E2
:1036B000ADF80A00ADF8060001A94FF0804002F015
:1036C0001BF901221146900702F08DFC1C208DF899
:1036D000000001208DF8010003208DF80200012078
:1036E0008DF80300684600F014FD7FBD7FB50546E8
:1036F0000C460121022001F0CCFDADF80850ADF8D8
:1037000004400020ADF80A00ADF8060001A9844885
:1037100002F0F2F801221146814802F064FC1D20FB
:103720008DF8000002208DF801008DF802000120C4
:103730008DF80300684600F0ECFC7FBD10B5012158
:10374000880702F0FEFE40B10121880702F00AFF5F
:1037500074480078401C7349087010BD10B50121F1
:103760006F4802F0EEFE00287ED001216C4802F086
:10377000F9FE6D480068401C6B4908606B48008882
:10378000401C6A4908800846008802286CDB6848AB
:10379000007800284ED104210120FFF79AFB6549EB
:1037A00008800846008800126349644A128801F8BC
:1037B000120060480078614A128801EB42014870AB
:1037C0005E480088401C5D49088004210220FFF704
:1037D00080FB584908800846008800125649574A1D
:1037E000128801F8120053480078544A128801EBFD
:1037F0004201487051480088401C5049088004210B
:103800000320FFF766FB4B4908800846008800123A
:1038100049494A4A128801F8120046480178464848
:10382000464A128800EB4200417044480088401C20
:10383000424908803E480078012851D10421FFF711
:1038400048FB3C4908800846008801123C483B4A36
:10385000128800F81210374801783948374A128820
:1038600000EB4200417000E058E034480088401C02
:103870003249088004210220FFF72BFB2D490880E4
:103880000846008801122E482C4A128800F81210AF
:10389000284800782A49294A128801EB42014870D9
:1038A00026480088401C2549088004210320FFF792
:1038B00010FB2049088008460088001220491F4A52
:1038C000128801F812001B4801781D481B4A128813
:1038D00000EB4200417019480088401C17490880DD
:1038E000164800887E2815D1002014490880104809
:1038F000007808B9012000E000200D490870002080
:10390000104908701048006808B9012000E0002044
:103910000D4908604FF002000449088010BD000006
:10392000000400400000002004000020920B002052
:10393000140000201C000020BC0B00200A00002006
:10394000B80C0020150000209481214270B5054676
:10395000002405E0601CC4B2C82C01DD002070BD4D
:1039600002213A4802F051FF0028F3D02946374897
:1039700002F0F8FE002405E0601CC4B2C82C01DD92
:103980000020ECE70121314802F03FFF0028F3D08E
:103990002E4802F0E9FEC0B2E1E700B587B0012190
:1039A000082001F069FC0121880301F072FC4FF44A
:1039B0006040ADF8180018208DF81B0003208DF82A
:1039C0001A0006A9224801F0A1F94FF460412048ED
:1039D00001F047FA0020ADF804004FF48270ADF812
:1039E00006000020ADF808000220ADF80A00012012
:1039F000ADF80C004002ADF80E003820ADF8100014
:103A00000020ADF812000720ADF8140001A90F48FE
:103A100002F0D2FD01210D4802F073FEFF20FFF7F6
:103A200095FF07B000BD10B50446084800884FF662
:103A3000C77108400549088008460088204308806F
:103A40000121024802F05DFE10BD00000038004078
:103A5000000C014010B500240020C64908604FF05A
:103A60009000FFF773FF0020FFF770FF0020FFF7C3
:103A70006DFF0020FFF76AFFFF20FFF767FF44EAB2
:103A80000024FF20FFF762FF04430120BA49C1F878
:103A9000B001204610BD08B501214FF4947001F02B
:103AA000EBFB4FF48050ADF8000010208DF80300C0
:103AB00003208DF802006946B04801F027F94FF461
:103AC0008051AE4801F0CDF90420ADF80000694600
:103AD000AB4801F01BF90421A94801F0C2F980208C
:103AE000ADF800006946A74801F010F98021A5480B
:103AF00001F0B7F9FFF751FF0020FFF794FFFFF740
:103B0000A9FFA149088008BD10B5002400209949EB
:103B100008604FF00500FFF719FFFF20FFF716FFC1
:103B2000044601209449C1F8B001204610BD10B5EB
:103B3000044600208F4908604FF00100FFF706FFA0
:103B40002046FFF703FF01208B49C1F8B00110BDEB
:103B500010B50020874908604FF00600FFF7F6FE19
:103B600001208549C1F8B00110BD10B50020814980
:103B700008604FF00400FFF7E9FE01207E49C1F81C
:103B8000B00110BD2DE9F04106460C461746002055
:103B9000784908604FF00300FFF7D8FEC4F30740F0
:103BA000FFF7D4FEC4F30720FFF7D0FEE0B2FFF723
:103BB000CDFE002505E0FF20FFF7C8FE7055681C0C
:103BC00085B2BD42F7DB01206A490860BDE8F0819B
:103BD00010B500BFFFF798FF10F0010FFAD110BD2C
:103BE0002DE9F04106460C461746FFF7B1FF0020CD
:103BF000604908604FF00200FFF7A8FEC4F30740D9
:103C0000FFF7A4FEC4F30720FFF7A0FEE0B2FFF722
:103C10009DFE002504E0705DFFF798FE681C85B2EC
:103C2000BD42F8DB012053490860FFF7D1FFBDE832
:103C3000F0812DE9F04107460E461446F0B2C0F57A
:103C40008075AC4200DC254612E02A4631463846F3
:103C5000FFF7C6FFAC4200D10BE02F442E44601B9F
:103C600084B2B4F5807F02DD4FF4807500E0254614
:103C7000EBE700BFBDE8F0812DE9F04707460E46AF
:103C800014464FEA1639C6F30B08C8F58055AC4206
:103C900000DC254616E02A4631463846FFF7C9FFC4
:103CA000AC4200D10FE009F101094FF000082F44A8
:103CB0002E44601B84B2B4F5805F02DD4FF4805562
:103CC00000E02546E7E700BFBDE8F08710B5FFF745
:103CD0003FFFFFF77DFF0020264908604FF0C70037
:103CE000FFF734FE01202449C1F8B001FFF770FF4F
:103CF00010BD10B504462403FFF72AFFFFF768FF45
:103D000000201C4908604FF02000FFF71FFEC4F39D
:103D10000740FFF71BFEC4F30720FFF717FEE0B2D2
:103D2000FFF714FE01201449C1F8B001FFF750FF5E
:103D300010BD10B500200F4908604FF0B900FFF723
:103D400005FE01200C49C1F8B001032000F0C5F8C0
:103D500010BD10B50020074908604FF0AB00FFF719
:103D6000F5FD01200449C1F8B001032000F0B5F8C9
:103D700010BD0000B081214200802142000C0140B2
:103D80000014014000200140980B00200EB5FCF704
:103D9000F7FD0121084601F06FFA0021084601F005
:103DA000C9F80120019000208DF8080010208DF83E
:103DB000090001208DF80A0001A802F06BFD062021
:103DC0008DF8000000208DF801008DF80200012020
:103DD0008DF80300684600F09CF90EBD10B5012176
:103DE0002D4801F024F801280ED14FF47A7000F02C
:103DF00074F80121284801F01AF8012848D101215E
:103E0000800702F0D5F843E04FF47A7000F065F8CF
:103E10000121214801F00BF8012804D000214FF0C6
:103E2000804002F0C5F81D4800780F2816DC1B48BA
:103E30000078032812DB1A48007801280BD11948B2
:103E4000007808B9012000E0002016490870002021
:103E50001249087002E00020104908700F480078ED
:103E60001E280ADB0E48007808B9012000E0002077
:103E70000B4908700020094908700848007810288C
:103E800006DB064800781D2802DC00200349087084
:103E9000012002F076FD10BD000801400000002066
:103EA000020000200100002010B56FF0040000F0B7
:103EB0007BF92D4800682D49B0FBF1F02C490870C2
:103EC0000846007800EB4001C1EBC0104FF6FF71CF
:103ED00001EAC0002749088010BD0146244A127833
:103EE0004A434FF0E0235A6100229A611A46126950
:103EF00042F001021A6100BF4FF0E022106910F099
:103F0000010F02D010F4803FF6D04FF0E02212698A
:103F100022F001024FF0E0231A6100229A617047FB
:103F20000146144A12884A434FF0E0235A610022A6
:103F30009A611A46126942F001021A6100BF4FF0FD
:103F4000E022106910F0010F02D010F4803FF6D08B
:103F50004FF0E022126922F001024FF0E0231A61D3
:103F600000229A61704700002000002000127A00B1
:103F70009A0B00209C0B002010B54FF4A06000F0BD
:103F8000C3F810BD014600BF704700BF4A4A1288FF
:103F900012F0400FFAD0C2B2474B1B1D1A80704777
:103FA00010B586B00446012144F2040001F064F922
:103FB000414801F0C9F94FF40070ADF81400032036
:103FC0008DF8160018208DF8170005A93B4800F061
:103FD0009DFE4FF48060ADF8140004208DF81700AA
:103FE00005A9364800F092FE25208DF80000032038
:103FF0008DF801008DF8020001208DF8030068465D
:1040000000F087F801940020ADF80800ADF80A0030
:10401000ADF80C00ADF810000C20ADF80E0001A9B1
:10402000254801F0D4F9012240F22551224801F03F
:1040300066FA0121204801F056FA06B010BD10B50D
:1040400040F225511C4801F03FFB10B31A4801F023
:10405000BBFAC4B21A48008810F4004F2BD118489C
:10406000008810F4804F0CD00A2C03D00020144993
:10407000088020E01248008840F400401049088081
:1040800019E00D2C06D10E48008840F480400C4900
:10409000088010E00A480088C0F30D0009490C545C
:1040A00007480088401C0649088008460088C72841
:1040B00001DD0020088010BD0038014000080140EB
:1040C000A00B0020BE0D002009488047094800478A
:1040D000FEE7FEE7FEE7FEE7FEE7FEE7FEE7FEE7B8
:1040E000FEE7FEE704480549054A064B7047000015
:1040F0003508000831010008E80E0020E81400200F
:10410000E8100020E810002031490143314A1160D5
:10411000704770B5002100230F22C4780CB32D4CDA
:10412000246804F4E064C4F5E064210AC1F10403E6
:10413000CA40447804FA03F1847814402143090109
:10414000254C0678A155047804F01F050124AC40E5
:1041500005786D114FF0E02606EB8505C5F80041A6
:1041600009E0047804F01F050124AC401B4D0678DB
:10417000761145F8264070BD194A0A400243154B96
:104180001B1F1A60704739B1124A121D1268024390
:10419000104B1B1D1A6006E00E4A121D1268824366
:1041A0000C4B1B1D1A607047042808D14FF0E0210A
:1041B000096941F004014FF0E022116107E04FF07E
:1041C000E021096921F004014FF0E02211617047FC
:1041D0000000FA050CED00E000E400E080E100E002
:1041E00080FFFF1F10B50446FA48844208D1012120
:1041F000401501F05BF80021601501F057F817E059
:10420000F548844208D10121001501F04FF8002142
:10421000201501F04BF80BE0F048844208D1012151
:10422000C80301F043F800214FF4004001F03EF8CC
:1042300010BD30B50246002000235068E84C2040F5
:104240000D790C6844EA0524204350609068E54CE1
:104250002040D1E902542C434D7944EA45042043DF
:104260009060D06A20F470000C7C641EE4B223439A
:1042700040EA0350D06230BD0021016001714171FC
:104280008160C16001210174704721B1826842F0F0
:104290000102826003E0826822F0010282607047BE
:1042A00021B1826842F48072826003E0826822F465
:1042B00080728260704710B50023CBB21AB1446897
:1042C0001C43446002E044689C43446010BD816824
:1042D00041F0080181607047014600208A6812F0B1
:1042E000080F01D0012000E000207047816841F0F4
:1042F000040181607047014600208A6812F0040FB3
:1043000001D0012000E00020704721B1826842F412
:10431000A002826003E0826822F4A00282607047FB
:10432000014600208A6812F4800F01D0012000E0CD
:104330000020704710B50A4600210023416821F48F
:104340006041531E41EA4331416010BD21B14268D2
:1043500042F40062426003E0426822F4006242607C
:104360007047F0B504460D4600200021092D11DDEF
:10437000E068A5F10A0606EB4607072606FA07F1EC
:104380008843A5F10A0606EB460603FA06F1084340
:10439000E0600CE0206905EB4507072606FA07F107
:1043A000884305EB450603FA06F108432061072A16
:1043B0000FDA606B561E06EB86071F2606FA07F11A
:1043C0008843561E06EB860605FA06F1084360632D
:1043D00022E00D2A0FDA206BD61F06EB86071F2678
:1043E00006FA07F18843D61F06EB860605FA06F1A2
:1043F0000843206310E0E06AA2F10D0606EB860791
:104400001F2606FA07F18843A2F10D0606EB860681
:1044100005FA06F10843E062F0BD21B1826842F47A
:104420008012826003E0826822F48012826070470A
:104430000146C86C80B2704766484C3000687047CF
:1044400021B1426842F48062426003E0426822F493
:1044500080624260704721B1426842F480524260FB
:1044600003E0426822F48052426070470A4600210D
:10447000816821F4E04111438160704721B1826875
:1044800042F40042826003E0826822F400428260CB
:10449000704721B1826842F40212826003E08268B0
:1044A00022F4021282607047014600208A6812F4EA
:1044B000001F01D0012000E000207047F0B5044645
:1044C0001546002000220026092911DDE068A1F12F
:1044D0000A0707EB470C072707FA0CF29043A1F1F4
:1044E0000A0707EB470703FA07F21043E0600CE006
:1044F000206901EB410C072707FA0CF2904301EB0E
:10450000410703FA07F210432061A06BC0F3015684
:10451000EF1C06F1010CA7EB0C0707EB870C1F271C
:1045200007FA0CF29043EF1C06F1010CA7EB0C0705
:1045300007EB870701FA07F21043A063F0BD10B53F
:104540000A4600210023816B21F44011531E41EAE9
:104550000351816310BD08B5002300930090009BB8
:104560000B440093009B1A6008BD08B5024600206A
:104570000090009201F12800009B184400900098E0
:10458000006880B208BD0A4600214168164B1940F8
:104590001143416070474162826270470A460021C0
:1045A000416821F01F0111434160704740B1094942
:1045B0000831096841F40001064A0832116007E039
:1045C00004490831096821F40001024A08321160E7
:1045D000704700000024014000280140003C0140D9
:1045E000FFFEF0FFFDF7F1FFFFFD3FFF0246002059
:1045F00013680B4201D0012000E000207047CA433D
:104600000260704770B502460020002300240B12A0
:104610005568CEB205EA060415681D4202D00CB1F9
:10462000012000E0002070BD00220A12D343036085
:104630007047000030B943F2DB014FF0204242F8EE
:10464000201005E043F2D2014FF0204242F8201042
:104650006FF07042411C4FF0204343F82120114677
:104660001A4602EB8002C2F80411704710280AD1E2
:1046700018214FF020421166402151664FF0FC3165
:104680009166D16610E01821F84A11604FF04001A0
:104690004FF02042C2F884104FF0FC31F44A116010
:1046A0004FF02042C2F88C1070471820F149086082
:1046B0004FF000004FF02041C1F8A4004FF0FC3053
:1046C000ED49086001F10401086001F1040108608E
:1046D0007047D0E901121143C268114302691143C6
:1046E0004269114382691143C2691143026A11434D
:1046F000426A1143826A1143C26A1143026B114339
:104700004FF02043026843F822108168082908D13D
:104710001A46016852F8211041F04001026843F83E
:104720002210416B0968426B526841EA0211426BE8
:10473000926841EA0221426B928941EA0241426B4E
:10474000128A41EA0251426B127D41EA0261426BD8
:10475000926911430268521C4FF0204343F8221023
:10476000C16AB1F5804F1AD1816B0968826B5268BA
:1047700041EA0211826B926841EA0221826B128A3D
:1047800041EA0251826B127D41EA0261826B9269B9
:104790001143026803EB8202C2F8041108E06FF0D3
:1047A00070414FF02043026803EB8202C2F804110B
:1047B000704730B5002100220023446844F008040B
:1047C00085682C43C5682C4305692C43456944EA38
:1047D0004524856944EA4531C4692468C5696D6822
:1047E00044EA0524C5692D8944EA0544C5692D7B41
:1047F00044EA0562046A2468056A6D6844EA05248F
:10480000056A2D8944EA0544056A2D7B44EA05635F
:104810000468102C05D14FF020442166A266E3669F
:1048200007E0924C21604FF02044C4F88820934C5C
:10483000236030BD016841F01001426841EA422125
:10484000826841EA42318B4A1160C1680968C268D6
:10485000526841EA0221C268128941EA0241C268F3
:10486000127B41EA0261844A1160016909680269A8
:10487000526841EA02210269128941EA0241026951
:10488000127B41EA02617E4A11604169096842690E
:10489000526841EA02214269128941EA02414269B1
:1048A000127B41EA02614FF02042C2F8B01070471B
:1048B000002101600221416000218160C16001612D
:1048C00041618161C16101624FF4805141624900DF
:1048D00081620021C16201630F21426B1160426B52
:1048E0005160FF21426B91600F21426BD160426B9E
:1048F0001161426B51610021426B91610F21826B0A
:104900001160826B5160FF21826B91600F21826B7D
:10491000D160826B1161826B51610021826B916168
:10492000704710210160002141608160C160016118
:1049300041618161FC21C2691160C2695160C26933
:104940009160C269D160026A1160026A5160026AB4
:104950009160026AD160704700210160416081600E
:10496000FC21C2681160C2685160C2689160C2686F
:10497000D160026911600269516002699160026947
:10498000D160426911604269516042699160426937
:10499000D160704751B14FF0204252F8202042F0D0
:1049A00001024FF0204343F8202009E04FF020425D
:1049B00052F82020334B1A404FF0204343F8202078
:1049C000704799B1102808D14FF02042126E42F082
:1049D00004024FF020431A661DE0244A126842F098
:1049E00004024FF02043C3F8802014E0102809D1BE
:1049F0004FF02042126E234BDB1E1A404FF0204333
:104A00001A6608E0194A12681F4B02EA03024FF0C7
:104A10002043C3F88020704740B11649096841F02F
:104A200004014FF02042C2F8A01008E011490968C3
:104A3000154A01EA02014FF02042C2F8A010704767
:104A400099B1102808D14FF02042126E42F0400276
:104A50004FF020431A662DE0044A126842F04002EB
:104A60004FF02043C3F8802024E00FE0800000A036
:104A7000880000A0A00000A0A80000A08C0000A05A
:104A8000AC0000A0FEFF0F00FBFF0F00102808D1B4
:104A90004FF02042126E684B1A404FF020431A66C6
:104AA00008E0664A1268644B02EA03024FF02043B2
:104AB000C3F88020704701460020102903D14FF031
:104AC0002042506F01E05E4A1068704710B5F2B1A5
:104AD000102807D14FF020435B6E0B434FF020446A
:104AE000636632E0B0F5807F08D1564B1B6843EA1D
:104AF00001034FF02044C4F8843026E0524B1B6879
:104B000043EA01034FF02044C4F8A4301DE010280C
:104B100007D14FF020435B6E8B434FF02044636618
:104B200013E0B0F5807F08D1464B1B6823EA0103F0
:104B30004FF02044C4F8843007E0434B1B6823EA5D
:104B400001034FF02044C4F8A43010BD10B5024654
:104B500000200023102A03D14FF02044636E07E0A9
:104B6000B2F5807F02D1374C236801E0364C2368D0
:104B70000B4201D0012000E0002010BD102807D119
:104B80004FF02042526E8A434FF020435A6613E0A2
:104B9000B0F5807F08D12B4A126822EA01024FF05B
:104BA0002043C3F8842007E0274A126822EA010262
:104BB0004FF02043C3F8A420704770B50246002090
:104BC000002300240025102A03D14FF02046736EE5
:104BD00007E0B2F5807F02D11A4E336801E01A4E29
:104BE000336803EA010403EAD10514B10DB10120D1
:104BF00000E0002070BD102808D14FF02042526E16
:104C000022EAD1024FF020435A6613E0B0F5807FCC
:104C100008D10C4A126822EAD1024FF02043C3F8AF
:104C2000842007E0084A126822EAD1024FF02043AC
:104C3000C3F8A42070470000BFFF0F00800000A051
:104C4000940000A0840000A0A40000A010B50446B9
:104C5000CA48844208D10121042000F027FB00212A
:104C6000042000F023FB46E0C548844208D101211E
:104C7000082000F01BFB0021082000F017FB3AE0A1
:104C8000C048844208D10121102000F00FFB002110
:104C9000102000F00BFB2EE0BB48844208D101211C
:104CA000202000F003FB0021202000F0FFFA22E08A
:104CB000B648844208D10121402000F0F7FA0021D3
:104CC000402000F0F3FA16E0B148844208D10121F7
:104CD000802000F0EBFA0021802000F0E7FA0AE0E3
:104CE000AC48844207D10121801500F0DFFA002191
:104CF000A01500F0DBFA10BD10B50121084600F048
:104D0000D5FA0021012000F0D1FA10BD2DE9F041C3
:104D1000024600250026002000230024002791F8E9
:104D200003C00CF00F0591F803C01CF0100F03D066
:104D300091F802C04CEA050591F800C0BCF1000FE3
:104D400031D0146800202BE04FF0010C0CFA00F376
:104D5000B1F800C00CEA03069E4220D183004FF058
:104D60000F0C0CFA03F7BC4305FA03FC4CEA0404ED
:104D700091F803C0BCF1280F06D14FF0010C0CFADA
:104D800000FCC2F814C00AE091F803C0BCF1480F5F
:104D900005D14FF0010C0CFA00FCC2F810C0401C09
:104DA0000828D1D31460B1F800C0BCF1FF0F34DD86
:104DB000546800202EE000F1080C4FF0010808FABA
:104DC0000CF3B1F800C00CEA03069E4221D1830027
:104DD0004FF00F0C0CFA03F7BC4305FA03FC4CEA46
:104DE000040491F803C0BCF1280F05D100F1080CB0
:104DF00008FA0CF8C2F8148091F803C0BCF1480F0F
:104E000007D100F1080C4FF0010808FA0CF8C2F8BD
:104E10001080401C0828CED35460BDE8F0814FF6C6
:104E2000FF710180022181700421C1707047024628
:104E3000002093680B4201D0012000E00020704761
:104E40000146886880B2704702460020D3680B4252
:104E500001D0012000E0002070470146C86880B200
:104E6000704701617047416170470AB1016100E01C
:104E700041617047C16070474FF480320A438261DC
:104E80008161826182698269704702460020424BDB
:104E900018684FF68073184040EA021008433E4BF2
:104EA000186070473D49C8617047F0B50A46002355
:104EB00000240021002500F00046B6F1004F02D189
:104EC000354EF16901E0344E7168C0F3034583B299
:104ED00000F44016B6F5401F08D121F070612E4E47
:104EE000766826F070662C4F7E6012E000F4801623
:104EF000B6F5801F06D1032606FA05F4A14341F05A
:104F0000706106E0460D360103FA06F6B14341F042
:104F1000706122B1460D360103FA06F6314300F006
:104F20000046B6F1004F02D11B4EF16101E01A4E6E
:104F30007160F0BD30B500228B071C0F0F2303FA00
:104F400004F2154B08338C1053F824309343124C61
:104F500008348D1044F8253023468C1053F8243043
:104F60008C07240F00FA04F423430B4C08348D10F3
:104F700044F8253030BD0A490860704700080140F8
:104F8000000C0140001001400014014000180140D5
:104F9000001C0140002001400000014000002042B0
:104FA000DC002042DD48006840F00100DB49086079
:104FB00008464068DA490840D84948600846006811
:104FC000D8490840D54908600846006820F4802088
:104FD00008600846406820F4FE0048604FF41F0057
:104FE00088607047CD49096821F48031CB4A11604F
:104FF0001146096821F480211160B0F5803F03D08B
:10500000B0F5802F0ED106E0C449096841F4803123
:10501000C24A116007E0C149096841F4A021BF4AB2
:10502000116000E000BF00BF704710B501460022CC
:10503000002300204A11012A02D1B84C236806E05F
:10504000022A02D1B54C236A01E0B44C636A01F034
:105050001F02012494401C4201D0012000E00020E6
:1050600010BD38B5002000900024002500BF31207D
:10507000FFF7DBFF05460098401C00900098B0F554
:10508000A06F01D0002DF2D03120FFF7CEFF08B184
:10509000012400E00024204638BD014600209F4A3C
:1050A000106820F0F80040EAC100106070479E4987
:1050B0000860704702460020984B586820F47C1026
:1050C00042EA01031843954B5860704796490866B9
:1050D000704701460020914A506820F003000843C1
:1050E000506070478D48406800F00C0070470146E2
:1050F00000208A4A506820F0F00008435060704752
:1051000001460020854A506820F4E0600843506062
:10511000704701460020814A506820F4605040EA00
:10512000C1005060704729B17C4A527A02437B4BE0
:105130005A7204E0794A527A8243784B5A72704725
:105140007A490860704701460020744A506820F48C
:1051500040400843506070470021754A11706F4A03
:1051600082F82010012802D0042808D103E0012190
:105170006F4A117004E005216D4A117000E000BF14
:1051800000BF70476B49086070476449096A014372
:10519000624A11627047674944390860704730B508
:1051A00000210022002400235C4D6D6805F00C01F5
:1051B00021B1042905D0082923D105E05E4D056001
:1051C00022E05D4D05601FE0544D6D6805F47012DE
:1051D000524D6D6805F48034022505EB92421CB9EE
:1051E000564D554305600BE04C4D6D6815F4003F7E
:1051F00003D0524D5543056002E04F4D55430560C5
:1052000002E04D4D056000BF00BF444D6D6805F0E4
:10521000F00109094A4D6B5C0568DD4045603F4D72
:105220006D6805F4E061090A454D6B5C4568DD4039
:1052300085603A4D6D6805F46051C90A404D6B5C5C
:105240004568DD40C560354D6D6805F44041890B0A
:105250003C4D6B5CC568B5FBF3F5056130BD29B10C
:105260002E4A526902432D4B5A6104E02B4A52697F
:1052700082432A4B5A61704729B1284A92690243F6
:10528000264B9A6104E0254A92698243234B9A6136
:10529000704729B1214AD2690243204BDA6104E008
:1052A0001E4AD26982431D4BDA61704729B11B4AFD
:1052B000D2680243194BDA6004E0184AD26882438C
:1052C000164BDA60704729B1144A12690243134B36
:1052D0001A6104E0114A12698243104B1A61704747
:1052E00014494039086070470F49C86470470B493A
:1052F000C87170470948406A40F0807007494862A9
:10530000704701460020054A92680A4201D00120F8
:1053100000E0002070470149887270470010024089
:105320000000FFF8FFFFF6FE00004242D8004242B4
:10533000201002408004424200127A0000093D0021
:10534000A80B0020B80B002010B50446FB4884428F
:1053500009D101218803FFF7A9FF00214FF4804004
:10536000FFF7A4FF32E0F648844209D10121480446
:10537000FFF7A9FF00214FF40030FFF7A4FF25E05D
:10538000F048844209D101218804FFF79CFF0021E5
:105390004FF48020FFF797FF18E0EB48844209D1D3
:1053A0000121C804FFF78FFF00214FF40020FFF711
:1053B0008AFF0BE0E548844208D101210805FFF788
:1053C00082FF00214FF48010FFF77DFF10BD2DE913
:1053D000F04786B005460E460024A24600BFA1460F
:1053E0000027B08900B100BF2F462C8A4CF6FF7011
:1053F0000440F08804432C82AC894EF6F31004403C
:10540000B08831890843718908430443AC81AC8A70
:105410004FF6FF400440B0890443AC8201A8FFF777
:10542000BEFEC648874202D1DDF810A001E0DDF8DB
:105430000CA0A88910F4004F08D00AEBCA0000EBBA
:105440000A1031684900B0FBF1F807E00AEBCA0026
:1054500000EB0A1031688900B0FBF1F86420B8FB5A
:10546000F0F004012009642101FB1089A88910F4DF
:10547000004F08D0322000EBC900B0FBF1F000F083
:105480000700044308E0322000EB09106421B0FB60
:10549000F1F000F00F0004432C8106B0BDE8F08766
:1054A0004FF41651016000218180C18001810C21DF
:1054B000418100218181704710B502460020108A89
:1054C0004FF2FF0318400B884C8823438C882343FA
:1054D000CC8823431843108210BD002101804180F5
:1054E0008180C180704721B1828942F4005282815B
:1054F00004E082894DF6FF731A4082817047F0B54F
:1055000003460024002600250020A1F510676A3F0D
:1055100000D100BF1846C1F3421401F01F06012755
:1055200007FA06F5012C01D10C3004E0022C01D160
:10553000103000E014301AB107682F43076002E012
:105540000768AF430760F0BD1AB1838A0B438382BB
:1055500002E0838A8B4383827047028A4FF6F0739E
:105560001A400282028A0A430282704782894FF2FD
:10557000FF731A40828182890A438281704721B178
:10558000828942F00202828104E082894FF6FD7333
:105590001A4082817047028A4FF6DF731A400282F6
:1055A000028A0A430282704721B1028A42F4804291
:1055B000028204E0028A4BF6FF731A4002827047AF
:1055C000C1F308028280704701468888C0F3080052
:1055D0007047818941F0010181817047028BD2B20D
:1055E0000283028B42EA012202837047028B02F49B
:1055F0007F420283028B0A430283704721B1828A71
:1056000042F02002828204E0828A4FF6DF731A4061
:105610008282704721B1828A42F01002828204E0C5
:10562000828A4FF6EF731A408282704721B1828AD4
:1056300042F00802828204E0828A4FF6F7731A4031
:105640008282704721B1828942F40042828103E064
:105650008289C2F30E028281704721B1828A42F4AC
:105660000062828204E0828A4FF2FF731A408282D3
:105670007047828A4FF6FB731A408282828A0A43FD
:105680008282704721B1828A42F00202828204E063
:10569000828A4FF6FD731A408282704702460020CC
:1056A000B1F5007F00D100BF13880B4201D001206B
:1056B00000E00020704701F40072B2F5007F00D1D5
:1056C00000BFCA430280704770B502460024002321
:1056D00000250020A1F510666A3E00D100BFC1F38D
:1056E000421501F01F03012606FA03F3012D02D132
:1056F0009689334006E0022D02D1168A334001E03C
:10570000968A33400C12012606FA04F416883440B7
:1057100013B10CB1012000E0002070BD10B50022D3
:105720000023A1F510646A3C00D100BF0A120124D5
:105730009440A3B2DC43048010BD00000038014057
:105740000044004000480040004C00400050004031
:1057500010B50446FE48844208D10121C014FFF769
:10576000A5FD0021E014FFF7A1FDC4E0B4F1804FD6
:1057700008D101210846FFF7A6FD00210120FFF70F
:10578000A2FDB8E0F348844208D101210220FFF7CE
:105790009AFD00210220FFF796FDACE0EE4884421E
:1057A00008D101210420FFF78EFD00210420FFF71E
:1057B0008AFDA0E0E948844208D101210820FFF7D2
:1057C00082FD00210820FFF77EFD94E0E44884423A
:1057D00008D101211020FFF776FD00211020FFF7EE
:1057E00072FD88E0DF48844208D101212020FFF7C4
:1057F0006AFD00212020FFF766FD7CE0DA48844244
:1058000008D101214014FFF751FD00216014FFF77A
:105810004DFD70E0D548844209D10121C804FFF74D
:1058200045FD00214FF40020FFF740FD63E0D04824
:10583000844209D101210805FFF738FD00214FF40A
:105840008010FFF733FD56E0CA48844209D1012198
:105850004805FFF72BFD00214FF40010FFF726FD50
:1058600049E0C548844208D101214020FFF72BFDC3
:1058700000214020FFF727FD3DE0C048844208D1C9
:1058800001218020FFF71FFD00218020FFF71BFD75
:1058900031E0BB48844208D101218015FFF713FD98
:1058A0000021A015FFF70FFD25E0B648844209D17D
:1058B00001210804FFF7FAFC00214FF48030FFF7C4
:1058C000F5FC18E0B048844209D101214804FFF7F3
:1058D000EDFC00214FF40030FFF7E8FC0BE0AB4893
:1058E000844208D101218804FFF7E0FC00214FF435
:1058F0008020FFF7DBFC10BD00220288944B984209
:105900000ED0994B98420BD0B0F1804F08D0914BFC
:10591000984205D0904B984202D0904B984204D1C7
:105920004FF68F731A404B881A438D4B984207D01D
:105930008C4B984204D04FF6FF431A40CB881A4351
:1059400002808B8883850B880385814B98420BD01E
:10595000854B984208D08B4B984205D08A4B984291
:1059600002D08A4B984201D10B7A038601238382AD
:10597000704770B5002400220023058C4FF6FE7698
:1059800035400584028C8388048B4FF68F752C403C
:10599000B51E2C400D882C43751E2A400D892A43C4
:1059A0004D882A436A4DA8420BD06F4DA84208D0BB
:1059B000744DA84205D0744DA84202D0734DA84240
:1059C00013D14FF6F7752A404D892A434FF6FB75E0
:1059D0002A408D882A434FF6FF652B404FF6FF552E
:1059E0002B408D892B43CD892B4383800483CD8825
:1059F0008586028470BD70B5002400220023058CCA
:105A00004FF6EF7635400584028C8388048B48F688
:105A1000FF752C404FF6FF452C400D884FF6FF7662
:105A200006EA05252C434FF6DF752A400D8906EA64
:105A300005152A434D8806EA05152A43444DA84218
:105A400002D0494DA8421DD14FF67F752A404D899D
:105A50004FF6FF7606EA05152A434FF6BF752A4032
:105A60008D8806EA05152A434FF6FF352B404FF285
:105A7000FF752B408D8906EA85052B43CD8906EA03
:105A800085052B4383800483CD880587028470BD00
:105A900070B5002400220023058C4FF6FF663540C8
:105AA0000584028C8388848B4FF68F752C404FF6CB
:105AB000FC752C400D882C434FF6FF552A400D896C
:105AC0004FF6FF7606EA05252A434D8806EA0525A6
:105AD0002A431F4DA84202D0234DA8421DD14FF2A8
